:0600000002150402006B72
:03000B0002006B85
:0300130002006B7D
:03001B0002006B75
:0300230002006B6D
:03002B0002006B65
:0300330002006B5D
:03003B0002006B55
:0300430002006B4D
:03004B0002006B45
:0300530002006B3D
:03005B0002006B35
:0300630002006B2D
:01006B003262
:0900800002006B0002006B00029B
:08008900006B0002006B000295
:08009100006B0002006B00028D
:08009900006B0002006B000285
:0800A100006B0002006B00027D
:0800A900006B0002006B000275
:0700B100006B0002006B0070
:0901000002006B0002006B00021A
:08010900006B0002006B000214
:08011100006B0002006B00020C
:08011900006B0002006B000204
:08012100006B0002006B0002FC
:08012900006B0002006B0002F4
:08013100006B0002006B0002EC
:08013900006B0002006B0002E4
:08014100006B0002006B0002DC
:08014900006B0002006B0002D4
:08015100006B0002006B0002CC
:08015900006B0002006B0002C4
:08016100006B0002006B0002BC
:08016900006B0002006B0002B4
:08017100006B0002006B0002AC
:07017900006B0002006B00A7
:08018000780DE84400600C79E1
:0C01880001902000E4F0A3D8FCD9FAD0CC
:0E01940083D082F6D8FDC082C083758200221F
:0CE0000012010002FFFFFF40FEFF0700BE
:06E00C0000010102040105
:0AE012000A060002FFFFFF400100B4
:0EE01C00090227000101008032090400000300
:0EE02A00FFFFFF030705020200020007058644
:0BE03800020002000705840200020045
:0CE0440012010002FFFFFF40FEFF07007A
:06E05000000101020001C5
:0AE056000A060002FFFFFF40010070
:0EE060000902120001010080320904000000D4
:04E06E00FFFFFF03AE
:01E0720005A8
:02E073007EE04D
:02E0750084E045
:02E07700ACE01B
:02E07900CCE0F9
:02E07B00EEE0D5
:06E07E0006030000090486
:0EE0840028034600720065006500200053006E
:0EE092006F0066007400770061007200650088
:0CE0A000200046006F006C006B00730055
:0EE0AC002003480050005300440052002000A2
:0EE0BA004F005A005900200052006500760009
:02E0C800200036
:02E0CA003F0015
:0EE0CC00220343006F006D006D0061006E00C6
:0EE0DA00640020002600200053007400610046
:06E0E800740075007300D6
:02E0EE0012031B
:0EE0F00031002E0034003100340032003100C7
:02E0FE003300ED
:0101A200223A
:0201A300AA822E
:0601A5001201A2DAFB22A8
:0301AB0090FB5076
:0801AE00A3E582458370F922EC
:0401B600AA82AB83EB
:0801BA001201AB1ABAFF011B90
:0501C200EA4B70F4227D
:0801C70090E6A0E04401F022E3
:0E01CF00AA8274805AC423541FFB740F5A90E6
:0C01DD00E6834BF090E683E04420F02223
:0E01E90090E680E0440AF09000FA1201B69011
:0E01F700E65D74FFF090E65F74FFF05391EF49
:0802050090E680E054F7F022BE
:0A020D00AA82E54070047582012208
:0E02170090E678E0FB20E6F890E6787480F040
:0A022500EA2AFA90E67974014AF023
:0E022F0090E678E0FA30E0F890E678E0FA30F9
:05023D00E2030202C211
:0B02420090E678E0FA20E1030202C21F
:0C024D007401B5400890E678E0FA442007
:01025900F0B4
:09025A0090E679E0F541AA3EAB03
:030263003FAC406D
:040266001CEC6030FC
:0E026A0090E678E0FD30E0F890E678E0FD20C8
:0D027800E248BC010890E678E0FD4420F06B
:0E02850090E679E0FD8A828B83F0A3AA82AB1B
:07029300838A3E8B3F80CC03
:0E029A0090E678E0FA30E0F890E678E0FA209E
:0C02A800E21890E678E04440F0AA3EAB7B
:0C02B4003F90E679E08A828B83F075822F
:0202C000012219
:0B02C20090E678E04440F075820022D6
:0202CD00AA8203
:0E02CF0090E678E0FB20E6F890E6787480F088
:0702DD00EA2AFA90E679F02D
:0E02E40090E678E0FA30E0F890E678E0FA2054
:0C02F200E24790E678E0FA30E13FAA3ED7
:0402FE00AB3FAC4026
:0E030200EC602B8A828B83E0FDA3AA82AB8382
:0603100090E679EDF01CFF
:0E03160090E678E0FD30E0F890E678E0FD201B
:0C032400E21590E678E0FD20E1D4800BAB
:0B03300090E678E04440F07582012266
:0B033B0090E678E04440F0758200225C
:05034600AA82BA0300C9
:07034B004005EA249C50016B
:010352002288
:09035300740F5AFBBB0302800782
:07035C00740F5AFBBB0B45B7
:0A036300A2AF9200C2AFEA2400F539
:0C036D0082E43400F5837402F07B00741D
:0C037900012AFCE43BFDEC2400F582EDC1
:0A0385003400F583E53FFCF074023C
:0C038F002AFAE43BFBEA2400F582EB3480
:0A039B0000F583AA3E7B00EAF0A201
:0303A5000092AF14
:0103A8002232
:0803A900E582FA2483500122D1
:0603B100EA540360012282
:0A03B700A2AF9201C2AFEA2400F5E4
:0C03C10082E43401F5837402F07B0074C8
:0C03CD00012AFCE43BFDEC2400F582ED6D
:0A03D9003401F583E53FF074022AB9
:0B03E300FAE43BFBEA2400F582EB3457
:0803EE0001F583AA3EEAF0A22A
:0403F6000192AF229F
:0503FA00AA82BA800098
:0703FF004005EA244B500108
:0104060022D3
:06040700EA54036001222B
:0A040D00A2AF9202C2AFEA2480F50C
:0C04170082E43400F5837402F07B007472
:0C042300012AFCE43BFDEC2480F582ED96
:0A042F003400F583E53FF074022A63
:0B043900FAE43BFBEA2480F582EB3480
:0804440000F583AA3EEAF0A2D4
:04044C000292AF2247
:08045000C2E8C2EA753E007526
:060458003F017582431212
:04045E000346753E9E
:0304620080753F63
:0C046500007582531203460090E650E43C
:0E047100F00090E652E4F00090E654E4F00053
:0E047F0090E656E4F00090E65174FFF0009015
:0E048D00E65374FFF00090E65574FFF0009007
:0E049B00E65774FFF00090E658E4F090E65942
:0E04A90074FFF090E65AE4F090E65B74FFF00A
:0E04B70090E65CE4F090E65D74FFF090E65E87
:0E04C500E4F090E65F74FFF00090E660E4F073
:0D04D3000090E66174FFF090E662E4F090A6
:0E04E000E66374FFF090E665E4F090E6687461
:0A04EE000BF05391AFD2E8D2EA22DE
:0804F800E582FA7003F5B12260
:04050000EA42B122F8
:090504007582001204F8C2812284
:0A050D00AA827B00EA30E0027B01C5
:05051700EA30E1010BD8
:05051C00EA30E2010BD2
:05052100EA30E3010BCC
:05052600EA30E4010BC6
:05052B00EA30E5010BC0
:05053000EA30E6010BBA
:05053500EA30E7010BB4
:03053A008B82228F
:0C053D00AA82850982C00212050DAB8263
:0B054900D002EB24FE5004758200225B
:0B055400850982C0021204F8D002E505
:08055F000A30E7047582002256
:0C0567007460550AFB6023BB2002800575
:05057300BB40178008E9
:080578008508821206048011BF
:090580008A821206048508821229
:0405890006048004E0
:04058D007582002251
:06059100E50D600C850D74
:0505970015850B8285B3
:05059C000C831206BCF7
:0A05A1007582001204F87582012231
:0C05AB00AA82850F82C0021204F8D00260
:0905B700E51030E7047582002212
:0C05C00074605510FB6023BB2002800516
:0505CC00BB4017800890
:0805D100850E82120604801160
:0905D9008A82120604850E8212CA
:0405E2000604800487
:0405E60075820022F8
:0605EA00E513600C85130F
:0505F000148511828555
:0505F5001283120655FF
:0A05FA007582001204F875820122D8
:0E060400E58223FA139281D280C280EA23FAA3
:0E061200139281D280C280EA23FA139281D221
:0E06200080C280EA23FA139281D280C280EA5F
:0E062E0023FA139281D280C280EA23FA13923B
:0E063C0081D280C280EA23FA139281D280C25A
:0B064A0080EA23139281D280C280223C
:06065500AA82AB83AC1485
:0E065B008C051CED601E8A828B83E0FDA3AA35
:0E06690082AB838D82C002C003C0041206045F
:08067700D004D003D00280DCA6
:01067F002258
:0E068000E4D280A28333C280D280A28333C230
:0E068E0080D280A28333C280D280A28333C286
:0E069C0080D280A28333C280D280A28333C278
:0E06AA0080D280A28333C280D280A28333C26A
:0406B80080F5822225
:0606BC00AA82AB83AC151D
:0E06C2008C051CED6012120680AD828A828BC0
:0A06D00083EDF0A3AA82AB8380E85B
:0106DA0022FD
:0A06DB00AA82AB83C2AD8A3E8B3FBA
:0E06E50075822B12034675CB6375CAC075C8AB
:0406F30004D2AD225E
:06150400751600751700CA
:0A06F70090E680E0FA30E71975186C
:0307010000751967
:03070400E0751A83
:0307070012751B4D
:03070A00E0751C7B
:03070D001C751D3B
:03071000E0751E73
:0307130060751FEF
:02071600E022DF
:040718007518447597
:03071C0019E0756C
:03071F001A5675F2
:030722001BE07564
:030725001C6075E0
:030728001DE0755C
:03072B001E1C751C
:03072E001FE022A7
:090731005391EF75A100D20332CF
:0C073A00C021C0E0C0F0C082C083C0023B
:0E074600C003C004C005C006C007C000C0014B
:0E075400C0D075D0005391EF75A1001206F7CA
:0E076200D0D0D001D000D007D006D005D004F2
:0D077000D003D002D083D082D0F0D0E0D0F2
:02077D00213227
:0C077F00C021C0E0C0F0C082C083C002F6
:0E078B00C003C004C005C006C007C000C00106
:0E079900C0D075D0005391EF75A1001206F785
:0E07A700D0D0D001D000D007D006D005D004AD
:0D07B500D003D002D083D082D0F0D0E0D0AD
:0207C2002132E2
:0507C4001206F7753E6E
:0307C90031753F48
:0807CC00077582001203A975F4
:0307D4003E3A7535
:0607D7003F0775821012BD
:0407DD0003A9753EB9
:0307E1007F753FE2
:0C07E400077582141203A990E65C7431C2
:0207F000F022F5
:0D07F200E582547FFA24F75004758200223E
:0707FF00BA0104758201221A
:08080600530201E4BA000104F1
:03080E00F582224E
:0E081100AA82BA010C90E6A1E0FB7C008B826B
:03081F008C8322A5
:0E082200BA810C90E6A2E0FB7C008B828C83F6
:0108300022A5
:0E08310053027FEA700C90E6A0E0FB7C008B87
:04083F00828C832202
:0E08430090E6A3E0FB7C00EAC313FA7D00EA16
:090851002BFBED3C8B82F58322A8
:0D085A0090E6B8E0FA53021FBA00028005D4
:05086700BA02458012F9
:0A086C0090E6BAE0FABA0102800536
:05087600BA020280033C
:03087B001201C7A0
:0E087E0090E6BAE0FA702A90E6BCE0F582122D
:0D088C0007F2E582601A90E6BCE0F58212EA
:0E0899000811AA82AB83E0FC4304018A828B23
:0508A70083ECF080036A
:0308AC001201C76F
:0308AF000201C77C
:0D08B20090E6B8E0FA53021FBA000280057C
:0508BF00BA02408007B1
:0708C40090E6BAE00201C753
:0D08CB0090E6BAE0702E90E6BCE0F58212D7
:0D08D80007F2E582602190E6BCE0F5821297
:0E08E5000811AA82AB83E0FC5304FE8A828BCA
:0C08F30083ECF090E6BCE0F5820201CF3F
:0308FF000201C72C
:030902000201C728
:0D09050090E6B8E0FA53021FBA0002800A23
:05091200BA0102801B88
:05091700BA025F802A16
:0E091C0090E7407401F090E741E4F090E68A25
:08092A00F090E68B7402F0224C
:0E09320090E740E4F090E741F090E68AF09004
:06094000E68B7402F022B8
:0E09460090E6BCE0F5821207F2E58260239095
:0E095400E6BCE0F582120811E0FA53020190B1
:0E096200E740EAF090E741E4F090E68AF0907A
:06097000E68B7402F02288
:030976000201C7B4
:030979000201C7B1
:0A097C0090E6BBE0FABA0102801712
:05098600BA02028030FE
:05098B00BA03028049DF
:05099000BA0602801709
:05099500BA07028030EA
:03099A00020A0B43
:0A099D00AA18AB1990E6B3EBF09036
:0509A700E6B4EAF022B5
:0A09AC00AA1AAB1B90E6B3EBF09023
:0509B600E6B4EAF022A6
:0A09BB00AA1CAB1D90E6B3EBF09010
:0509C500E6B4EAF02297
:0A09CA00AA1EAB1F90E6B3EBF090FD
:0509D400E6B4EAF02288
:0E09D90090E6BAE0FA90E072E0FBC3EA9B40C1
:0409E700030201C73F
:0C09EB0090E6BAE075F002A42473F582D7
:0B09F70074E035F0F583E0FAA3E09017
:090A0200E6B3F090E6B4EAF0223C
:030A0B000201C71E
:0C0A0E0090E6B9E0FA6036BA0602802ECD
:050A1A00BA080280058E
:050A1F00BA0A2C801250
:0C0A240090E740E516F090E68AE4F090C0
:060A3000E68B7401F022C8
:0C0A360090E740E517F090E68AE4F090AD
:060A4200E68B7401F022B6
:030A480002097C24
:030A4B0002090598
:030A4E000201C7DB
:0A0A510090E6B9E0FABA010280272E
:050A5B00BA0302802532
:050A6000BA050280232D
:050A6500BA0702801E2B
:050A6A00BA090280053D
:050A6F00BA0B16800720
:070A740090E6BAE0F516223E
:070A7B0090E6BAE0F5172236
:030A82000208B2B5
:030A850002085A0A
:030A88000201C7A1
:0E0A8B0090E6B8E0FA530280BA8003020A0E29
:030A9900020A51FD
:0C0A9C00C20390E6B8E0FA530260BA0012
:030AA80002801EAB
:050AAB00BA20028008E2
:050AB000BA40028008BD
:030AB500BA60160E
:050AB8001201C78014CB
:0C0ABD00120F8AE582700D1201C780083C
:050AC900120A8B8003FE
:030ACE001201C74B
:080AD10090E6A0E04480F02251
:070AD900AA82BA0A027A0D9D
:050AE00010990280FBEB
:030AE5008A9922C9
:080AE800AA82AB83ACF07D0093
:0E0AF0008D060DEE2AFEE43BFF8C008E828FF9
:0E0AFE008388F01214E8FEFF60178F82C0029A
:0E0B0C00C003C004C005120AD9D005D004D021
:050B1A0003D00280D1B0
:010B1F0022B3
:090B2000E582FA700443A04022B2
:040B290053A0BF22F4
:090B2D00E582FA700443A0802265
:040B360053A07F2227
:040B3A0063A0402252
:040B3E0063A080220E
:030B4200020504A5
:0B0B4500AA82902000E4F0902001E55F
:040B500022F0753EDC
:030B540000753FEA
:090B5700207540028A82C00212DE
:0B0B600002CDE582D0027003F5822276
:040B6B0085233E851B
:030B6F00243F859B
:050B720025408A82020B
:020B7700020D6D
:0E0B790053A0C07582281201A343A0027A0087
:0E0B8700E5A020E4140A758232C0021201A318
:050B9500D002BAFF00D0
:060B9A0040EB7582002211
:040BA0007582012237
:0E0BA400E5821392A0D2A2C2A21392A0D2A206
:0E0BB200C2A21392A0D2A2C2A21392A0D2A2FB
:0E0BC000C2A21392A0D2A2C2A21392A0D2A2ED
:0E0BCE00C2A21392A0D2A2C2A21392A0D2A2DF
:030BDC00C2A22290
:060BDF00AA82AB26AC2740
:0E0BE5008A051AED60128B828C83E0FDA3ABB3
:0A0BF30082AC838D82120BA480E80F
:010BFD0022D5
:070BFE00858226858327850F
:090C05002882120BDF7582012226
:0A0C0E00E5A0FA20E404758200223C
:0A0C1800530208BA08047582012295
:040C220075820022B5
:0E0C260090E6007412F0758E0090E60174FBEB
:0E0C3400F0000090E6047480F00090E6047476
:0E0C420002F00090E6047404F00090E60474E2
:0E0C500006F00090E6047408F00090E604E45C
:0E0C5E00F00075800075B20375A0C075B4E794
:0D0C6C0075B10075B6EF90E61074A0F09021
:0E0C7900E61174A0F00090E61274A2F0009054
:0E0C8700E61374E2F00090E61474E0F0000052
:0D0C950090E609E4F090E6187401F000907C
:0E0CA200E6187411F00090E6207402F0009045
:0D0CB000E621E4F00090E6197401F00090D8
:0E0CBD00E6197409F00090E6227402F000902F
:0D0CCB00E623E4F00090E61A7409F00090B2
:0E0CD800E6247402F00090E625E4F00000909F
:0E0CE600E60274D8F00090E60374FEF043AF0F
:0E0CF4000190E68AE4F00090E68DE4F00090B6
:0E0D0200E608E04401F0759850D299020B42C9
:03151000021518A9
:03150A007529013F
:03152B0002151393
:05151300120FE480FE50
:050D100090E68BE4F009
:090D150090E6A0E0FA20E1F822CA
:0A0D1E0090E6B9E0FABA010280265F
:050D2800BA020280493F
:060D2D00BA0803020DA04C
:060D3300BA0903020DC421
:060D3900BA0B03020DFAE3
:060D3F00BA0C03020E4590
:060D4500BA0D03020E16B8
:030D4B00020E6B2A
:0C0D4E0090E6BCE0FA6005BA011A800CC7
:0C0D5A0090E6BAE0F582120B20020E6F4A
:0C0D660090E6BAE0F582120B2D020E6F31
:040D72007582002264
:0C0D760090E6BCE0FA600ABA01028008B6
:050D8200BA0217801207
:030D8700020B79E3
:0C0D8A00120D1090E68BE0F52890E74079
:030D9600020BFE4F
:030D9900020C0E3B
:040D9C00758200223A
:0C0DA000120D1090E6BAE0FA753E4075A6
:0A0DAC003FE790E68BE0F5408A82F5
:0A0DB6001202CDE5826003020E6F09
:040DC0007582002216
:0D0DC400120D1090E6BBE0FA90E6BAE0F5E3
:0A0DD1000E90E6BDE0F50F90E6BCC1
:070DDB00E0F51075114075F1
:0A0DE20012E790E68BE0F5138A8219
:0A0DEC001205ABE5826003020E6FF2
:040DF60075820022E0
:0E0DFA0090E6BAE0FABA010A90E67AE0FA440E
:040E080001F0806312
:0A0E0C0090E67AE0FA54FEF08059F7
:0C0E160090E6BBE0FA90E6BAE0F53190FF
:0A0E2200E6BDE0F53290E6BCE0F515
:050E2C00337534407530
:0A0E310035E790E68BE0F5368A8283
:0A0E3B001213F3E582702DF58222F8
:0E0E450090E6BAE0700890E6007402F0801C9F
:0E0E530090E6BAE0FABA010890E600740AF0E0
:020E6100800C03
:080E630090E6007412F0800417
:040E6B00758200226A
:040E6F007582012265
:0B0E730090E6B9E0FABA0D03020F058B
:050E7E00BA810280149E
:050E8300BA8202803D6F
:060E8800BA8403020F4EC4
:060E8E00BA8503020F68A3
:030E9400020F82C8
:0A0E970090E6BAE0FA753E40753FA0
:0C0EA100E790E6BEE0F5408A8212020DE8
:070EAD00E5827003F58222CB
:0E0EB40090E68AE4F090E6BEE0FA90E68BF05D
:030EC200020F8696
:0C0EC50090E6BBE0FA90E6BAE0F5089079
:0A0ED100E6BDE0F50990E6BCE0F58F
:050EDB000A750B4075D3
:0A0EE0000CE790E6BEE0F50D8A82F3
:0A0EEA0012053DE5827003F5822237
:0E0EF40090E68AE4F090E6BEE0FA90E68BF01D
:030F0200020F8655
:0C0F050090E6BBE0FA90E6BAE0F5389008
:0A0F1100E6BDE0F53990E6BCE0F51E
:050F1B003A753B407532
:0A0F20003CE790E6BEE0F53D8A8252
:0E0F2A0012149CE582700D90152E75F0801249
:060F38000AE875820022A8
:0E0F3E0090E68AE4F090E6BEE0FA90E68BF0D2
:020F4C008038EB
:0E0F4E0090E678E0FA53021890E740EAF0903F
:0C0F5C00E68AE4F090E68B7401F0801E41
:0E0F680090E67AE0FA53020190E740EAF0903A
:0C0F7600E68AE4F090E68B7401F0800441
:040F82007582002252
:040F8600758201224D
:0B0F8A0090E6B8E0FABAC003020E7354
:0B0F950090E6B8E0FABA4003020D1E1F
:040FA0007582002234
:080FA4003003FD120A9C80F8E5
:0A0FAC00C0E0D5290675293263A0C4
:010FB60040FA
:050FB700C2CFD0E032C2
:040FBC007523027522
:030FC00024207575
:090FC30022057525017582511209
:080FCC000B45902002E0FA90B1
:0C0FD400E00CF090E050EAF074302A903D
:040FE000E0CAF02251
:0D0FE400120C26758201120B20758200127E
:080FF1000B2DC2AF120FBC1260
:060FF90004501207C47A47
:080FFF00AC7B0F8A828B831288
:0A10070006DBD2EAD2AF1201E99035
:09101100154575F080120AE89003
:09101A00155C75F080120AE890E3
:09102300156875F080120AE890CE
:09102C00156A75F080120AE890C3
:09103500157375F080120AE890B1
:09103E0015E875F080120AE802C1
:021047000FA4F4
:0E152E00736472316B696E206572726F722089
:09153C006261696C6F75740A00AC
:0E1545000A0A4850534452204F7A79204669D2
:09155300726D776172652E2000B3
:0C155C004D6179203235203230303900EA
:02156800200061
:09156A0032303A31333A343500D5
:0E1573000A436F7079726967687420323030F5
:0E158100332C20323030342C20323030362CD7
:0E158F002032303037205068696C20436F7670
:0E159D00696E67746F6E20284E385642292CF6
:0E15AB002042696C6C205472616365792028BF
:0E15B9004B4435544644292C0A616E6420468A
:0E15C70072656520536F667477617265204609
:0E15D5006F756E64617461696F6E2C20496ED3
:0515E300632E0A0A005E
:0E15E8005468697320636F6465206973206C1A
:0E15F6006963656E73656420756E64657220AE
:0E16040074686520474E552047656E6572611B
:0E1612006C205075626C6963204C6963656ED4
:0E16200073652056657273696F6E20320A0A78
:01162E0000BB
:03150D00752D0039
:0E104900E582FAC4540FFB53030F53020FBB92
:021057000A008D
:071059004015AC3EAD3FAEB7
:0C1060004074572BFF8C828D838EF012A1
:04106C0014CF80130A
:05107000AC3EAD3FAEF7
:0C1075004074302BFB8C828D838EF012B7
:0210810014CF8A
:03108300BA0A00A6
:0A108600401A7401253EFBE4353FDB
:0C109000FCAD4074572AFE8B828C838DCF
:06109C00F01214CF8018D1
:0A10A2007401253EFBE4353FFCAD70
:0C10AC004074302AFA8B828C838DF01285
:0210B80014CF53
:0A10BA007402253EFAE4353FFBAC5A
:0B10C400408A828B838CF0E40214CF82
:0E10CF00AA8290200BEAF090162F75F080C0D8
:0810DD0002120AE8D002753E80
:0510E5002A753F0075B3
:0810EA0040408A821210499077
:0910F200002A75F040120AE89092
:0910FB00164175F080120AE87537
:061104000E01750F80755D
:04110A00102075112B
:03110E000B75124C
:08111100207513017582001224
:0D11190005ABE582700D90164375F0801255
:061126000AE875820022B8
:0D112C0090165775F080120AE875820122B6
:011139002293
:08113A00AA82BA0203852E2DE2
:0711420090200CE52EF07572
:061149000E01750F807518
:04114F0010207511E6
:031153000C751206
:0A11560020751301758200C002121B
:0E11600005ABAB82D002EB701090166B75F0F1
:0B116E0080C003120AE8D0030211F554
:0E117900758202C0021201A3D00290200CEA7F
:08118700F0750E02750F807572
:04118F0010207511A6
:031193000C7512C6
:0811960020751301758200129F
:0E119E0005ABE582FB700F90168775F080C0E0
:0811AC0003120AE8D0038041A0
:0C11B4007582021201A390200CE4F0757B
:0611C0000E02750F8075A0
:0411C600102075116F
:0311CA000C75128F
:0811CD00207513017582001268
:0E11D50005ABE582FB700F9016A375F080C08D
:0811E30003120AE8D003800AA0
:0A11EB00758202C0031201A3D003B5
:0311F5008B8222C8
:0C11F800752E4075820812113AE582FA4B
:0E120400700F9016BF75F080C002120AE8D07D
:0312120002805007
:0C1215007582021201A3752EC0758208BC
:0E12210012113AE582FA700F9016D575F08022
:09122F00C002120AE8D002802D71
:0C1238007582021201A3752E4075820819
:0E12440012113AE582FA700F9016EB75F080E9
:09125200C002120AE8D002800A71
:0A125B00758202C0021201A3D00246
:031265008A822258
:0A126800AA82852F2E758204C002B1
:0E12720012113AAB82D0027C00EB4C7014904B
:0E128000170175F080C003C004120AE8D00404
:05128E00D00302133C37
:0E129300758202C0021201A3D00274404AF517
:0C12A1002E758208C00212113AAD82D0F6
:0E12AD00028D037C00EB4C701390171775F048
:0E12BB0080C003C004120AE8D004D003807380
:0C12C900758202C0021201A3D0028A2E1E
:0E12D500758208C00212113AAD82D0028D035C
:0E12E3007C00EB4C701390172D75F080C0034B
:0B12F100C004120AE8D004D0038040C3
:0E12FC00758202C0021201A3D00274404AF5AE
:0C130A002E75820812113AAA828A037C18
:0E13160000EB4C701390174375F080C003C0BD
:0A13240004120AE8D004D003800E82
:0E132E00758202C003C0041201A3D004D003D4
:03133C008B82227F
:0C133F00AA82AB2D430320EA30E40543F2
:04134B000310800308
:03134F005303EF56
:09135200EA30E3054303088003BF
:03135B005303F742
:0C135E004303045303FDE53060627A078E
:02136A007C0005
:0E136C00EC20E7698AF005F07D017E00800626
:06137A00ED2DFDEE33FE37
:0C138000D5F0F7AF307800EF5205E852CE
:0A138C0006ED4E60054303018003E7
:031396005303FE00
:0C1399008B2E758202C002C003C004123B
:0C13A500113AD004D0034303028B2E75D4
:0E13B1008202C003C00412113AD004D003D04F
:0913BF00025303FD1ABAFF011CE0
:0213C80080A201
:0B13CA005303FB8B2E758202C0031240
:0413D500113AD003F6
:0B13D9005303DF8B2E758202C003124D
:0C13E400113AD00374204BF52E758202E4
:0313F00002113AAD
:0913F300E53124FA4040E5312502
:0413FC0031253190D6
:031400001403735F
:071403000214390214330248
:06140A00141502141E027D
:05141000142102142A62
:0414150085332E8568
:05141900328202113ACD
:03141E000211F8C0
:0414210085332F855B
:05142500328202126892
:04142A008533308551
:05142E00328202133FB1
:061433008533820210CF98
:041439007582002296
:07143D0085820B85830C750D
:06144400084375098075E4
:04144A000A208537B8
:07144E000D75820002053D4F
:0A145500AA82AB8375423275433062
:07145F007544307545397535
:06146600463075473575A4
:06146C0048327549347599
:051472004A007C427DF0
:03147700007E40B4
:0E147A008C828D838EF01214E8FF60128A823D
:0E1488008B83EFF0A3AA82AB830CBC00E50DB2
:0214960080E2F2
:041498007582012236
:07149C007406B53802800759
:0714A3007407B5381A800C34
:0414AA00853D3785C0
:0614AE003B82853C830235
:0214B400143DE5
:0414B600853D3E85AD
:0614BA003B82853C830229
:0214C0001455C1
:0D14C20090175975F080120AE8758200221B
:0E162F00736574446174615265672076616C66
:04163D003D307800C4
:021641000A009D
:0E164300736574446174615265672062616969
:061651006C6F75740A00C5
:0E1657007365744461746152656720676F6F3C
:06166500642072630A001C
:0E166B006C61746368206261696C206F757435
:0E1679002073706920777269746520310A0051
:0E1687006C61746368206261696C206F757419
:0E1695002073706920777269746520320A0034
:0E16A3006C61746368206261696C206F7574FD
:0E16B1002073706920777269746520330A0017
:0E16BF00444453205265736574206261696C67
:0816CD00206F757420310A0042
:0E16D500444453205265736574206261696C51
:0816E300206F757420320A002B
:0E16EB00444453205265736574206261696C3B
:0816F900206F757420330A0014
:0E170100444453205772697465206261696C1C
:08170F00206F757420310A00FF
:0E171700444453205772697465206261696C06
:08172500206F757420320A00E8
:0E172D00444453205772697465206261696CF0
:08173B00206F757420330A00D1
:0E174300444453205772697465206261696CDA
:08175100206F757420340A00BA
:0E175900536472316B5F436F6E74726F6C4934
:0E1767006E3A206E6F7420696D706C656D6552
:061775006E7464210A00FD
:06152500E478FFF6D8FD9A
:0E14CF0020F71030F6118883A88220F507F66A
:0514DD00A883758300E7
:0114E20022E7
:0314E300F280F79D
:0214E600F022F2
:0315180075814A90
:0A151B00120180E58260030215133F
:0E14E80020F71430F6148883A88220F507E65A
:0614F600A88375830022AB
:0314FC00E280F794
:0314FF00E4932251
:02150200E022E5
:00000001FF
